{
  "_format": "hh-sol-artifact-1",
  "contractName": "RewardsController",
  "sourceName": "contracts/RewardsController.sol",
  "abi": [
    {
      "inputs": [
        {
          "internalType": "address",
          "name": "tokenAddress",
          "type": "address"
        },
        {
          "internalType": "address",
          "name": "admin",
          "type": "address"
        },
        {
          "internalType": "address",
          "name": "oracle",
          "type": "address"
        },
        {
          "internalType": "uint256",
          "name": "initialMaxRewardPerEvent",
          "type": "uint256"
        },
        {
          "internalType": "uint256",
          "name": "initialMaxRewardsPerUser",
          "type": "uint256"
        }
      ],
      "stateMutability": "nonpayable",
      "type": "constructor"
    },
    {
      "inputs": [],
      "name": "AccessControlBadConfirmation",
      "type": "error"
    },
    {
      "inputs": [
        {
          "internalType": "address",
          "name": "account",
          "type": "address"
        },
        {
          "internalType": "bytes32",
          "name": "neededRole",
          "type": "bytes32"
        }
      ],
      "name": "AccessControlUnauthorizedAccount",
      "type": "error"
    },
    {
      "inputs": [],
      "name": "EnforcedPause",
      "type": "error"
    },
    {
      "inputs": [],
      "name": "ExpectedPause",
      "type": "error"
    },
    {
      "anonymous": false,
      "inputs": [
        {
          "indexed": false,
          "internalType": "address",
          "name": "account",
          "type": "address"
        }
      ],
      "name": "Paused",
      "type": "event"
    },
    {
      "anonymous": false,
      "inputs": [
        {
          "indexed": false,
          "internalType": "uint256",
          "name": "maxRewardPerEvent",
          "type": "uint256"
        },
        {
          "indexed": false,
          "internalType": "uint256",
          "name": "maxRewardsPerUser",
          "type": "uint256"
        }
      ],
      "name": "RewardCapsUpdated",
      "type": "event"
    },
    {
      "anonymous": false,
      "inputs": [
        {
          "indexed": true,
          "internalType": "address",
          "name": "user",
          "type": "address"
        },
        {
          "indexed": false,
          "internalType": "uint256",
          "name": "amount",
          "type": "uint256"
        },
        {
          "indexed": true,
          "internalType": "bytes32",
          "name": "eventId",
          "type": "bytes32"
        }
      ],
      "name": "RewardIssued",
      "type": "event"
    },
    {
      "anonymous": false,
      "inputs": [
        {
          "indexed": true,
          "internalType": "bytes32",
          "name": "role",
          "type": "bytes32"
        },
        {
          "indexed": true,
          "internalType": "bytes32",
          "name": "previousAdminRole",
          "type": "bytes32"
        },
        {
          "indexed": true,
          "internalType": "bytes32",
          "name": "newAdminRole",
          "type": "bytes32"
        }
      ],
      "name": "RoleAdminChanged",
      "type": "event"
    },
    {
      "anonymous": false,
      "inputs": [
        {
          "indexed": true,
          "internalType": "bytes32",
          "name": "role",
          "type": "bytes32"
        },
        {
          "indexed": true,
          "internalType": "address",
          "name": "account",
          "type": "address"
        },
        {
          "indexed": true,
          "internalType": "address",
          "name": "sender",
          "type": "address"
        }
      ],
      "name": "RoleGranted",
      "type": "event"
    },
    {
      "anonymous": false,
      "inputs": [
        {
          "indexed": true,
          "internalType": "bytes32",
          "name": "role",
          "type": "bytes32"
        },
        {
          "indexed": true,
          "internalType": "address",
          "name": "account",
          "type": "address"
        },
        {
          "indexed": true,
          "internalType": "address",
          "name": "sender",
          "type": "address"
        }
      ],
      "name": "RoleRevoked",
      "type": "event"
    },
    {
      "anonymous": false,
      "inputs": [
        {
          "indexed": false,
          "internalType": "address",
          "name": "account",
          "type": "address"
        }
      ],
      "name": "Unpaused",
      "type": "event"
    },
    {
      "inputs": [],
      "name": "ADMIN_ROLE",
      "outputs": [
        {
          "internalType": "bytes32",
          "name": "",
          "type": "bytes32"
        }
      ],
      "stateMutability": "view",
      "type": "function"
    },
    {
      "inputs": [],
      "name": "DEFAULT_ADMIN_ROLE",
      "outputs": [
        {
          "internalType": "bytes32",
          "name": "",
          "type": "bytes32"
        }
      ],
      "stateMutability": "view",
      "type": "function"
    },
    {
      "inputs": [],
      "name": "ORACLE_ROLE",
      "outputs": [
        {
          "internalType": "bytes32",
          "name": "",
          "type": "bytes32"
        }
      ],
      "stateMutability": "view",
      "type": "function"
    },
    {
      "inputs": [
        {
          "internalType": "bytes32",
          "name": "",
          "type": "bytes32"
        }
      ],
      "name": "eventIdUsed",
      "outputs": [
        {
          "internalType": "bool",
          "name": "",
          "type": "bool"
        }
      ],
      "stateMutability": "view",
      "type": "function"
    },
    {
      "inputs": [
        {
          "internalType": "bytes32",
          "name": "role",
          "type": "bytes32"
        }
      ],
      "name": "getRoleAdmin",
      "outputs": [
        {
          "internalType": "bytes32",
          "name": "",
          "type": "bytes32"
        }
      ],
      "stateMutability": "view",
      "type": "function"
    },
    {
      "inputs": [
        {
          "internalType": "bytes32",
          "name": "role",
          "type": "bytes32"
        },
        {
          "internalType": "address",
          "name": "account",
          "type": "address"
        }
      ],
      "name": "grantRole",
      "outputs": [],
      "stateMutability": "nonpayable",
      "type": "function"
    },
    {
      "inputs": [
        {
          "internalType": "bytes32",
          "name": "role",
          "type": "bytes32"
        },
        {
          "internalType": "address",
          "name": "account",
          "type": "address"
        }
      ],
      "name": "hasRole",
      "outputs": [
        {
          "internalType": "bool",
          "name": "",
          "type": "bool"
        }
      ],
      "stateMutability": "view",
      "type": "function"
    },
    {
      "inputs": [
        {
          "internalType": "address",
          "name": "user",
          "type": "address"
        },
        {
          "internalType": "uint256",
          "name": "amount",
          "type": "uint256"
        },
        {
          "internalType": "bytes32",
          "name": "eventId",
          "type": "bytes32"
        }
      ],
      "name": "issueReward",
      "outputs": [],
      "stateMutability": "nonpayable",
      "type": "function"
    },
    {
      "inputs": [],
      "name": "maxRewardPerEvent",
      "outputs": [
        {
          "internalType": "uint256",
          "name": "",
          "type": "uint256"
        }
      ],
      "stateMutability": "view",
      "type": "function"
    },
    {
      "inputs": [],
      "name": "maxRewardsPerUser",
      "outputs": [
        {
          "internalType": "uint256",
          "name": "",
          "type": "uint256"
        }
      ],
      "stateMutability": "view",
      "type": "function"
    },
    {
      "inputs": [],
      "name": "pause",
      "outputs": [],
      "stateMutability": "nonpayable",
      "type": "function"
    },
    {
      "inputs": [],
      "name": "paused",
      "outputs": [
        {
          "internalType": "bool",
          "name": "",
          "type": "bool"
        }
      ],
      "stateMutability": "view",
      "type": "function"
    },
    {
      "inputs": [
        {
          "internalType": "bytes32",
          "name": "role",
          "type": "bytes32"
        },
        {
          "internalType": "address",
          "name": "callerConfirmation",
          "type": "address"
        }
      ],
      "name": "renounceRole",
      "outputs": [],
      "stateMutability": "nonpayable",
      "type": "function"
    },
    {
      "inputs": [
        {
          "internalType": "bytes32",
          "name": "role",
          "type": "bytes32"
        },
        {
          "internalType": "address",
          "name": "account",
          "type": "address"
        }
      ],
      "name": "revokeRole",
      "outputs": [],
      "stateMutability": "nonpayable",
      "type": "function"
    },
    {
      "inputs": [
        {
          "internalType": "uint256",
          "name": "newMaxRewardPerEvent",
          "type": "uint256"
        },
        {
          "internalType": "uint256",
          "name": "newMaxRewardsPerUser",
          "type": "uint256"
        }
      ],
      "name": "setRewardCaps",
      "outputs": [],
      "stateMutability": "nonpayable",
      "type": "function"
    },
    {
      "inputs": [
        {
          "internalType": "bytes4",
          "name": "interfaceId",
          "type": "bytes4"
        }
      ],
      "name": "supportsInterface",
      "outputs": [
        {
          "internalType": "bool",
          "name": "",
          "type": "bool"
        }
      ],
      "stateMutability": "view",
      "type": "function"
    },
    {
      "inputs": [],
      "name": "token",
      "outputs": [
        {
          "internalType": "contract MediPearsToken",
          "name": "",
          "type": "address"
        }
      ],
      "stateMutability": "view",
      "type": "function"
    },
    {
      "inputs": [
        {
          "internalType": "address",
          "name": "",
          "type": "address"
        }
      ],
      "name": "totalRewardsByUser",
      "outputs": [
        {
          "internalType": "uint256",
          "name": "",
          "type": "uint256"
        }
      ],
      "stateMutability": "view",
      "type": "function"
    },
    {
      "inputs": [],
      "name": "unpause",
      "outputs": [],
      "stateMutability": "nonpayable",
      "type": "function"
    }
  ],
  "bytecode": "0x60a06040523480156200001157600080fd5b5060405162000eff38038062000eff833981016040819052620000349162000321565b6001600160a01b038516620000905760405162461bcd60e51b815260206004820152601560248201527f746f6b656e206973207a65726f2061646472657373000000000000000000000060448201526064015b60405180910390fd5b6001600160a01b038416620000e85760405162461bcd60e51b815260206004820152601560248201527f61646d696e206973207a65726f20616464726573730000000000000000000000604482015260640162000087565b6001600160a01b038316620001405760405162461bcd60e51b815260206004820152601660248201527f6f7261636c65206973207a65726f206164647265737300000000000000000000604482015260640162000087565b60008211620001865760405162461bcd60e51b81526020600482015260116024820152700696e76616c6964206576656e742063617607c1b604482015260640162000087565b60008111620001cb5760405162461bcd60e51b815260206004820152601060248201526f0696e76616c69642075736572206361760841b604482015260640162000087565b6001600160a01b03851660805260048290556005819055620001ef60008562000255565b506200021c7fa49807205ce4d355092ef5a8a18f56e8913cf4a201fbe287825b095693c217758562000255565b50620002497f68e79a7bf1e0bc45d0a330c573bc367f9cf464fd326078812f301165fbda4ef18462000255565b5050505050506200037e565b6000828152602081815260408083206001600160a01b038516845290915281205460ff16620002fa576000838152602081815260408083206001600160a01b03861684529091529020805460ff19166001179055620002b13390565b6001600160a01b0316826001600160a01b0316847f2f8788117e7eff1d82e926ec794901d17c78024a50270940304540a733656f0d60405160405180910390a4506001620002fe565b5060005b92915050565b80516001600160a01b03811681146200031c57600080fd5b919050565b600080600080600060a086880312156200033a57600080fd5b620003458662000304565b9450620003556020870162000304565b9350620003656040870162000304565b6060870151608090970151959894975095949392505050565b608051610b5e620003a1600039600081816102ac01526105aa0152610b5e6000f3fe608060405234801561001057600080fd5b50600436106101215760003560e01c80634c16c991116100ad57806391d148541161007157806391d1485414610256578063a217fddf14610269578063d30344f114610271578063d547741f14610294578063fc0c546a146102a757600080fd5b80634c16c991146102125780635457517a1461021b5780635c975abb1461022e57806375b238fc146102395780638456cb591461024e57600080fd5b8063248a9ca3116100f4578063248a9ca3146101ac5780632f2ff15d146101cf57806336568abe146101e4578063398ea794146101f75780633f4ba83a1461020a57600080fd5b806301ffc9a7146101265780630451882a1461014e57806307e2cea51461017c5780630e3d51f5146101a3575b600080fd5b6101396101343660046109e5565b6102e6565b60405190151581526020015b60405180910390f35b61016e61015c366004610a32565b60036020526000908152604090205481565b604051908152602001610145565b61016e7f68e79a7bf1e0bc45d0a330c573bc367f9cf464fd326078812f301165fbda4ef181565b61016e60045481565b61016e6101ba366004610a4d565b60009081526020819052604090206001015490565b6101e26101dd366004610a66565b61031d565b005b6101e26101f2366004610a66565b610348565b6101e2610205366004610a92565b610380565b6101e2610653565b61016e60055481565b6101e2610229366004610ac5565b610676565b60015460ff16610139565b61016e600080516020610b0983398151915281565b6101e261075d565b610139610264366004610a66565b61077d565b61016e600081565b61013961027f366004610a4d565b60026020526000908152604090205460ff1681565b6101e26102a2366004610a66565b6107a6565b6102ce7f000000000000000000000000000000000000000000000000000000000000000081565b6040516001600160a01b039091168152602001610145565b60006001600160e01b03198216637965db0b60e01b148061031757506301ffc9a760e01b6001600160e01b03198316145b92915050565b600082815260208190526040902060010154610338816107cb565b61034283836107d5565b50505050565b6001600160a01b03811633146103715760405163334bd91960e11b815260040160405180910390fd5b61037b8282610867565b505050565b7f68e79a7bf1e0bc45d0a330c573bc367f9cf464fd326078812f301165fbda4ef16103aa816107cb565b6103b26108d2565b6001600160a01b0384166104045760405162461bcd60e51b815260206004820152601460248201527375736572206973207a65726f206164647265737360601b60448201526064015b60405180910390fd5b600083116104455760405162461bcd60e51b815260206004820152600e60248201526d616d6f756e74206973207a65726f60901b60448201526064016103fb565b60008281526002602052604090205460ff161561049d5760405162461bcd60e51b8152602060048201526016602482015275195d995b9d08185b1c9958591e481c995dd85c99195960521b60448201526064016103fb565b6004548311156104e85760405162461bcd60e51b81526020600482015260166024820152750616d6f756e742061626f7665206576656e74206361760541b60448201526064016103fb565b6001600160a01b03841660009081526003602052604081205461050c908590610ae7565b90506005548111156105585760405162461bcd60e51b81526020600482015260156024820152740616d6f756e742061626f766520757365722063617605c1b60448201526064016103fb565b6000838152600260209081526040808320805460ff191660011790556001600160a01b0388811680855260039093529281902084905551634d24848760e11b81526004810191909152602481018690527f000000000000000000000000000000000000000000000000000000000000000090911690639a49090e90604401600060405180830381600087803b1580156105f057600080fd5b505af1158015610604573d6000803e3d6000fd5b5050505082856001600160a01b03167f8c0ba91ed9e44c0a68b6055e2cc192cb295b9b4614adf8f34d1663077a9cd8e38660405161064491815260200190565b60405180910390a35050505050565b600080516020610b0983398151915261066b816107cb565b6106736108f8565b50565b600080516020610b0983398151915261068e816107cb565b600083116106d25760405162461bcd60e51b81526020600482015260116024820152700696e76616c6964206576656e742063617607c1b60448201526064016103fb565b600082116107155760405162461bcd60e51b815260206004820152601060248201526f0696e76616c69642075736572206361760841b60448201526064016103fb565b6004839055600582905560408051848152602081018490527fc48169f9ddc0f6bd9c4e89fb3ef3b70ae73dcbfc8d9cf4ea1b8b58481a90fa2f910160405180910390a1505050565b600080516020610b09833981519152610775816107cb565b61067361094a565b6000918252602082815260408084206001600160a01b0393909316845291905290205460ff1690565b6000828152602081905260409020600101546107c1816107cb565b6103428383610867565b6106738133610985565b60006107e1838361077d565b61085f576000838152602081815260408083206001600160a01b03861684529091529020805460ff191660011790556108173390565b6001600160a01b0316826001600160a01b0316847f2f8788117e7eff1d82e926ec794901d17c78024a50270940304540a733656f0d60405160405180910390a4506001610317565b506000610317565b6000610873838361077d565b1561085f576000838152602081815260408083206001600160a01b0386168085529252808320805460ff1916905551339286917ff6391f5c32d9c69d2a47ea670b442974b53935d1edc7fd64eb21e047a839171b9190a4506001610317565b60015460ff16156108f65760405163d93c066560e01b815260040160405180910390fd5b565b6109006109c2565b6001805460ff191690557f5db9ee0a495bf2e6ff9c91a7834c1ba4fdd244a5e8aa4e537bd38aeae4b073aa335b6040516001600160a01b03909116815260200160405180910390a1565b6109526108d2565b6001805460ff1916811790557f62e78cea01bee320cd4e420270b5ea74000d11b0c9f74754ebdbfc544b05a2583361092d565b61098f828261077d565b6109be5760405163e2517d3f60e01b81526001600160a01b0382166004820152602481018390526044016103fb565b5050565b60015460ff166108f657604051638dfc202b60e01b815260040160405180910390fd5b6000602082840312156109f757600080fd5b81356001600160e01b031981168114610a0f57600080fd5b9392505050565b80356001600160a01b0381168114610a2d57600080fd5b919050565b600060208284031215610a4457600080fd5b610a0f82610a16565b600060208284031215610a5f57600080fd5b5035919050565b60008060408385031215610a7957600080fd5b82359150610a8960208401610a16565b90509250929050565b600080600060608486031215610aa757600080fd5b610ab084610a16565b95602085013595506040909401359392505050565b60008060408385031215610ad857600080fd5b50508035926020909101359150565b8082018082111561031757634e487b7160e01b600052601160045260246000fdfea49807205ce4d355092ef5a8a18f56e8913cf4a201fbe287825b095693c21775a26469706673582212203aa35b6a30dc45c20beb5c0ffc767ef0658ba90a086a87f1968cbc2cdd18cbb664736f6c63430008140033",
  "linkReferences": {},
  "deployedLinkReferences": {}
}