{"contracts/RewardsController.sol":{"RewardsController":{"abi":[{"inputs":[{"internalType":"address","name":"tokenAddress","type":"address"},{"internalType":"address","name":"admin","type":"address"},{"internalType":"address","name":"oracle","type":"address"},{"internalType":"uint256","name":"initialMaxRewardPerEvent","type":"uint256"},{"internalType":"uint256","name":"initialMaxRewardsPerUser","type":"uint256"}],"stateMutability":"nonpayable","type":"constructor"},{"inputs":[],"name":"AccessControlBadConfirmation","type":"error"},{"inputs":[{"internalType":"address","name":"account","type":"address"},{"internalType":"bytes32","name":"neededRole","type":"bytes32"}],"name":"AccessControlUnauthorizedAccount","type":"error"},{"inputs":[],"name":"EnforcedPause","type":"error"},{"inputs":[],"name":"ExpectedPause","type":"error"},{"anonymous":false,"inputs":[{"indexed":false,"internalType":"address","name":"account","type":"address"}],"name":"Paused","type":"event"},{"anonymous":false,"inputs":[{"indexed":false,"internalType":"uint256","name":"maxRewardPerEvent","type":"uint256"},{"indexed":false,"internalType":"uint256","name":"maxRewardsPerUser","type":"uint256"}],"name":"RewardCapsUpdated","type":"event"},{"anonymous":false,"inputs":[{"indexed":true,"internalType":"address","name":"user","type":"address"},{"indexed":false,"internalType":"uint256","name":"amount","type":"uint256"},{"indexed":true,"internalType":"bytes32","name":"eventId","type":"bytes32"}],"name":"RewardIssued","type":"event"},{"anonymous":false,"inputs":[{"indexed":true,"internalType":"bytes32","name":"role","type":"bytes32"},{"indexed":true,"internalType":"bytes32","name":"previousAdminRole","type":"bytes32"},{"indexed":true,"internalType":"bytes32","name":"newAdminRole","type":"bytes32"}],"name":"RoleAdminChanged","type":"event"},{"anonymous":false,"inputs":[{"indexed":true,"internalType":"bytes32","name":"role","type":"bytes32"},{"indexed":true,"internalType":"address","name":"account","type":"address"},{"indexed":true,"internalType":"address","name":"sender","type":"address"}],"name":"RoleGranted","type":"event"},{"anonymous":false,"inputs":[{"indexed":true,"internalType":"bytes32","name":"role","type":"bytes32"},{"indexed":true,"internalType":"address","name":"account","type":"address"},{"indexed":true,"internalType":"address","name":"sender","type":"address"}],"name":"RoleRevoked","type":"event"},{"anonymous":false,"inputs":[{"indexed":false,"internalType":"address","name":"account","type":"address"}],"name":"Unpaused","type":"event"},{"inputs":[],"name":"ADMIN_ROLE","outputs":[{"internalType":"bytes32","name":"","type":"bytes32"}],"stateMutability":"view","type":"function"},{"inputs":[],"name":"DEFAULT_ADMIN_ROLE","outputs":[{"internalType":"bytes32","name":"","type":"bytes32"}],"stateMutability":"view","type":"function"},{"inputs":[],"name":"ORACLE_ROLE","outputs":[{"internalType":"bytes32","name":"","type":"bytes32"}],"stateMutability":"view","type":"function"},{"inputs":[{"internalType":"bytes32","name":"","type":"bytes32"}],"name":"eventIdUsed","outputs":[{"internalType":"bool","name":"","type":"bool"}],"stateMutability":"view","type":"function"},{"inputs":[{"internalType":"bytes32","name":"role","type":"bytes32"}],"name":"getRoleAdmin","outputs":[{"internalType":"bytes32","name":"","type":"bytes32"}],"stateMutability":"view","type":"function"},{"inputs":[{"internalType":"bytes32","name":"role","type":"bytes32"},{"internalType":"address","name":"account","type":"address"}],"name":"grantRole","outputs":[],"stateMutability":"nonpayable","type":"function"},{"inputs":[{"internalType":"bytes32","name":"role","type":"bytes32"},{"internalType":"address","name":"account","type":"address"}],"name":"hasRole","outputs":[{"internalType":"bool","name":"","type":"bool"}],"stateMutability":"view","type":"function"},{"inputs":[{"internalType":"address","name":"user","type":"address"},{"internalType":"uint256","name":"amount","type":"uint256"},{"internalType":"bytes32","name":"eventId","type":"bytes32"}],"name":"issueReward","outputs":[],"stateMutability":"nonpayable","type":"function"},{"inputs":[],"name":"maxRewardPerEvent","outputs":[{"internalType":"uint256","name":"","type":"uint256"}],"stateMutability":"view","type":"function"},{"inputs":[],"name":"maxRewardsPerUser","outputs":[{"internalType":"uint256","name":"","type":"uint256"}],"stateMutability":"view","type":"function"},{"inputs":[],"name":"pause","outputs":[],"stateMutability":"nonpayable","type":"function"},{"inputs":[],"name":"paused","outputs":[{"internalType":"bool","name":"","type":"bool"}],"stateMutability":"view","type":"function"},{"inputs":[{"internalType":"bytes32","name":"role","type":"bytes32"},{"internalType":"address","name":"callerConfirmation","type":"address"}],"name":"renounceRole","outputs":[],"stateMutability":"nonpayable","type":"function"},{"inputs":[{"internalType":"bytes32","name":"role","type":"bytes32"},{"internalType":"address","name":"account","type":"address"}],"name":"revokeRole","outputs":[],"stateMutability":"nonpayable","type":"function"},{"inputs":[{"internalType":"uint256","name":"newMaxRewardPerEvent","type":"uint256"},{"internalType":"uint256","name":"newMaxRewardsPerUser","type":"uint256"}],"name":"setRewardCaps","outputs":[],"stateMutability":"nonpayable","type":"function"},{"inputs":[{"internalType":"bytes4","name":"interfaceId","type":"bytes4"}],"name":"supportsInterface","outputs":[{"internalType":"bool","name":"","type":"bool"}],"stateMutability":"view","type":"function"},{"inputs":[],"name":"token","outputs":[{"internalType":"contract MediPearsToken","name":"","type":"address"}],"stateMutability":"view","type":"function"},{"inputs":[{"internalType":"address","name":"","type":"address"}],"name":"totalRewardsByUser","outputs":[{"internalType":"uint256","name":"","type":"uint256"}],"stateMutability":"view","type":"function"},{"inputs":[],"name":"unpause","outputs":[],"stateMutability":"nonpayable","type":"function"}],"evm":{"bytecode":{"linkReferences":{},"object":"60a06040523480156200001157600080fd5b5060405162000eff38038062000eff833981016040819052620000349162000321565b6001600160a01b038516620000905760405162461bcd60e51b815260206004820152601560248201527f746f6b656e206973207a65726f2061646472657373000000000000000000000060448201526064015b60405180910390fd5b6001600160a01b038416620000e85760405162461bcd60e51b815260206004820152601560248201527f61646d696e206973207a65726f20616464726573730000000000000000000000604482015260640162000087565b6001600160a01b038316620001405760405162461bcd60e51b815260206004820152601660248201527f6f7261636c65206973207a65726f206164647265737300000000000000000000604482015260640162000087565b60008211620001865760405162461bcd60e51b81526020600482015260116024820152700696e76616c6964206576656e742063617607c1b604482015260640162000087565b60008111620001cb5760405162461bcd60e51b815260206004820152601060248201526f0696e76616c69642075736572206361760841b604482015260640162000087565b6001600160a01b03851660805260048290556005819055620001ef60008562000255565b506200021c7fa49807205ce4d355092ef5a8a18f56e8913cf4a201fbe287825b095693c217758562000255565b50620002497f68e79a7bf1e0bc45d0a330c573bc367f9cf464fd326078812f301165fbda4ef18462000255565b5050505050506200037e565b6000828152602081815260408083206001600160a01b038516845290915281205460ff16620002fa576000838152602081815260408083206001600160a01b03861684529091529020805460ff19166001179055620002b13390565b6001600160a01b0316826001600160a01b0316847f2f8788117e7eff1d82e926ec794901d17c78024a50270940304540a733656f0d60405160405180910390a4506001620002fe565b5060005b92915050565b80516001600160a01b03811681146200031c57600080fd5b919050565b600080600080600060a086880312156200033a57600080fd5b620003458662000304565b9450620003556020870162000304565b9350620003656040870162000304565b6060870151608090970151959894975095949392505050565b608051610b5e620003a1600039600081816102ac01526105aa0152610b5e6000f3fe608060405234801561001057600080fd5b50600436106101215760003560e01c80634c16c991116100ad57806391d148541161007157806391d1485414610256578063a217fddf14610269578063d30344f114610271578063d547741f14610294578063fc0c546a146102a757600080fd5b80634c16c991146102125780635457517a1461021b5780635c975abb1461022e57806375b238fc146102395780638456cb591461024e57600080fd5b8063248a9ca3116100f4578063248a9ca3146101ac5780632f2ff15d146101cf57806336568abe146101e4578063398ea794146101f75780633f4ba83a1461020a57600080fd5b806301ffc9a7146101265780630451882a1461014e57806307e2cea51461017c5780630e3d51f5146101a3575b600080fd5b6101396101343660046109e5565b6102e6565b60405190151581526020015b60405180910390f35b61016e61015c366004610a32565b60036020526000908152604090205481565b604051908152602001610145565b61016e7f68e79a7bf1e0bc45d0a330c573bc367f9cf464fd326078812f301165fbda4ef181565b61016e60045481565b61016e6101ba366004610a4d565b60009081526020819052604090206001015490565b6101e26101dd366004610a66565b61031d565b005b6101e26101f2366004610a66565b610348565b6101e2610205366004610a92565b610380565b6101e2610653565b61016e60055481565b6101e2610229366004610ac5565b610676565b60015460ff16610139565b61016e600080516020610b0983398151915281565b6101e261075d565b610139610264366004610a66565b61077d565b61016e600081565b61013961027f366004610a4d565b60026020526000908152604090205460ff1681565b6101e26102a2366004610a66565b6107a6565b6102ce7f000000000000000000000000000000000000000000000000000000000000000081565b6040516001600160a01b039091168152602001610145565b60006001600160e01b03198216637965db0b60e01b148061031757506301ffc9a760e01b6001600160e01b03198316145b92915050565b600082815260208190526040902060010154610338816107cb565b61034283836107d5565b50505050565b6001600160a01b03811633146103715760405163334bd91960e11b815260040160405180910390fd5b61037b8282610867565b505050565b7f68e79a7bf1e0bc45d0a330c573bc367f9cf464fd326078812f301165fbda4ef16103aa816107cb565b6103b26108d2565b6001600160a01b0384166104045760405162461bcd60e51b815260206004820152601460248201527375736572206973207a65726f206164647265737360601b60448201526064015b60405180910390fd5b600083116104455760405162461bcd60e51b815260206004820152600e60248201526d616d6f756e74206973207a65726f60901b60448201526064016103fb565b60008281526002602052604090205460ff161561049d5760405162461bcd60e51b8152602060048201526016602482015275195d995b9d08185b1c9958591e481c995dd85c99195960521b60448201526064016103fb565b6004548311156104e85760405162461bcd60e51b81526020600482015260166024820152750616d6f756e742061626f7665206576656e74206361760541b60448201526064016103fb565b6001600160a01b03841660009081526003602052604081205461050c908590610ae7565b90506005548111156105585760405162461bcd60e51b81526020600482015260156024820152740616d6f756e742061626f766520757365722063617605c1b60448201526064016103fb565b6000838152600260209081526040808320805460ff191660011790556001600160a01b0388811680855260039093529281902084905551634d24848760e11b81526004810191909152602481018690527f000000000000000000000000000000000000000000000000000000000000000090911690639a49090e90604401600060405180830381600087803b1580156105f057600080fd5b505af1158015610604573d6000803e3d6000fd5b5050505082856001600160a01b03167f8c0ba91ed9e44c0a68b6055e2cc192cb295b9b4614adf8f34d1663077a9cd8e38660405161064491815260200190565b60405180910390a35050505050565b600080516020610b0983398151915261066b816107cb565b6106736108f8565b50565b600080516020610b0983398151915261068e816107cb565b600083116106d25760405162461bcd60e51b81526020600482015260116024820152700696e76616c6964206576656e742063617607c1b60448201526064016103fb565b600082116107155760405162461bcd60e51b815260206004820152601060248201526f0696e76616c69642075736572206361760841b60448201526064016103fb565b6004839055600582905560408051848152602081018490527fc48169f9ddc0f6bd9c4e89fb3ef3b70ae73dcbfc8d9cf4ea1b8b58481a90fa2f910160405180910390a1505050565b600080516020610b09833981519152610775816107cb565b61067361094a565b6000918252602082815260408084206001600160a01b0393909316845291905290205460ff1690565b6000828152602081905260409020600101546107c1816107cb565b6103428383610867565b6106738133610985565b60006107e1838361077d565b61085f576000838152602081815260408083206001600160a01b03861684529091529020805460ff191660011790556108173390565b6001600160a01b0316826001600160a01b0316847f2f8788117e7eff1d82e926ec794901d17c78024a50270940304540a733656f0d60405160405180910390a4506001610317565b506000610317565b6000610873838361077d565b1561085f576000838152602081815260408083206001600160a01b0386168085529252808320805460ff1916905551339286917ff6391f5c32d9c69d2a47ea670b442974b53935d1edc7fd64eb21e047a839171b9190a4506001610317565b60015460ff16156108f65760405163d93c066560e01b815260040160405180910390fd5b565b6109006109c2565b6001805460ff191690557f5db9ee0a495bf2e6ff9c91a7834c1ba4fdd244a5e8aa4e537bd38aeae4b073aa335b6040516001600160a01b03909116815260200160405180910390a1565b6109526108d2565b6001805460ff1916811790557f62e78cea01bee320cd4e420270b5ea74000d11b0c9f74754ebdbfc544b05a2583361092d565b61098f828261077d565b6109be5760405163e2517d3f60e01b81526001600160a01b0382166004820152602481018390526044016103fb565b5050565b60015460ff166108f657604051638dfc202b60e01b815260040160405180910390fd5b6000602082840312156109f757600080fd5b81356001600160e01b031981168114610a0f57600080fd5b9392505050565b80356001600160a01b0381168114610a2d57600080fd5b919050565b600060208284031215610a4457600080fd5b610a0f82610a16565b600060208284031215610a5f57600080fd5b5035919050565b60008060408385031215610a7957600080fd5b82359150610a8960208401610a16565b90509250929050565b600080600060608486031215610aa757600080fd5b610ab084610a16565b95602085013595506040909401359392505050565b60008060408385031215610ad857600080fd5b50508035926020909101359150565b8082018082111561031757634e487b7160e01b600052601160045260246000fdfea49807205ce4d355092ef5a8a18f56e8913cf4a201fbe287825b095693c21775a26469706673582212203aa35b6a30dc45c20beb5c0ffc767ef0658ba90a086a87f1968cbc2cdd18cbb664736f6c63430008140033","opcodes":"PUSH1 0xA0 PUSH1 0x40 MSTORE CALLVALUE DUP1 ISZERO PUSH3 0x11 JUMPI PUSH1 0x0 DUP1 REVERT JUMPDEST POP PUSH1 0x40 MLOAD PUSH3 0xEFF CODESIZE SUB DUP1 PUSH3 0xEFF DUP4 CODECOPY DUP2 ADD PUSH1 0x40 DUP2 SWAP1 MSTORE PUSH3 0x34 SWAP2 PUSH3 0x321 JUMP JUMPDEST PUSH1 0x1 PUSH1 0x1 PUSH1 0xA0 SHL SUB DUP6 AND PUSH3 0x90 JUMPI PUSH1 0x40 MLOAD PUSH3 0x461BCD PUSH1 0xE5 SHL DUP2 MSTORE PUSH1 0x20 PUSH1 0x4 DUP3 ADD MSTORE PUSH1 0x15 PUSH1 0x24 DUP3 ADD MSTORE PUSH32 0x746F6B656E206973207A65726F20616464726573730000000000000000000000 PUSH1 0x44 DUP3 ADD MSTORE PUSH1 0x64 ADD JUMPDEST PUSH1 0x40 MLOAD DUP1 SWAP2 SUB SWAP1 REVERT JUMPDEST PUSH1 0x1 PUSH1 0x1 PUSH1 0xA0 SHL SUB DUP5 AND PUSH3 0xE8 JUMPI PUSH1 0x40 MLOAD PUSH3 0x461BCD PUSH1 0xE5 SHL DUP2 MSTORE PUSH1 0x20 PUSH1 0x4 DUP3 ADD MSTORE PUSH1 0x15 PUSH1 0x24 DUP3 ADD MSTORE PUSH32 0x61646D696E206973207A65726F20616464726573730000000000000000000000 PUSH1 0x44 DUP3 ADD MSTORE PUSH1 0x64 ADD PUSH3 0x87 JUMP JUMPDEST PUSH1 0x1 PUSH1 0x1 PUSH1 0xA0 SHL SUB DUP4 AND PUSH3 0x140 JUMPI PUSH1 0x40 MLOAD PUSH3 0x461BCD PUSH1 0xE5 SHL DUP2 MSTORE PUSH1 0x20 PUSH1 0x4 DUP3 ADD MSTORE PUSH1 0x16 PUSH1 0x24 DUP3 ADD MSTORE PUSH32 0x6F7261636C65206973207A65726F206164647265737300000000000000000000 PUSH1 0x44 DUP3 ADD MSTORE PUSH1 0x64 ADD PUSH3 0x87 JUMP JUMPDEST PUSH1 0x0 DUP3 GT PUSH3 0x186 JUMPI PUSH1 0x40 MLOAD PUSH3 0x461BCD PUSH1 0xE5 SHL DUP2 MSTORE PUSH1 0x20 PUSH1 0x4 DUP3 ADD MSTORE PUSH1 0x11 PUSH1 0x24 DUP3 ADD MSTORE PUSH17 0x696E76616C6964206576656E742063617 PUSH1 0x7C SHL PUSH1 0x44 DUP3 ADD MSTORE PUSH1 0x64 ADD PUSH3 0x87 JUMP JUMPDEST PUSH1 0x0 DUP2 GT PUSH3 0x1CB JUMPI PUSH1 0x40 MLOAD PUSH3 0x461BCD PUSH1 0xE5 SHL DUP2 MSTORE PUSH1 0x20 PUSH1 0x4 DUP3 ADD MSTORE PUSH1 0x10 PUSH1 0x24 DUP3 ADD MSTORE PUSH16 0x696E76616C696420757365722063617 PUSH1 0x84 SHL PUSH1 0x44 DUP3 ADD MSTORE PUSH1 0x64 ADD PUSH3 0x87 JUMP JUMPDEST PUSH1 0x1 PUSH1 0x1 PUSH1 0xA0 SHL SUB DUP6 AND PUSH1 0x80 MSTORE PUSH1 0x4 DUP3 SWAP1 SSTORE PUSH1 0x5 DUP2 SWAP1 SSTORE PUSH3 0x1EF PUSH1 0x0 DUP6 PUSH3 0x255 JUMP JUMPDEST POP PUSH3 0x21C PUSH32 0xA49807205CE4D355092EF5A8A18F56E8913CF4A201FBE287825B095693C21775 DUP6 PUSH3 0x255 JUMP JUMPDEST POP PUSH3 0x249 PUSH32 0x68E79A7BF1E0BC45D0A330C573BC367F9CF464FD326078812F301165FBDA4EF1 DUP5 PUSH3 0x255 JUMP JUMPDEST POP POP POP POP POP POP PUSH3 0x37E JUMP JUMPDEST PUSH1 0x0 DUP3 DUP2 MSTORE PUSH1 0x20 DUP2 DUP2 MSTORE PUSH1 0x40 DUP1 DUP4 KECCAK256 PUSH1 0x1 PUSH1 0x1 PUSH1 0xA0 SHL SUB DUP6 AND DUP5 MSTORE SWAP1 SWAP2 MSTORE DUP2 KECCAK256 SLOAD PUSH1 0xFF AND PUSH3 0x2FA JUMPI PUSH1 0x0 DUP4 DUP2 MSTORE PUSH1 0x20 DUP2 DUP2 MSTORE PUSH1 0x40 DUP1 DUP4 KECCAK256 PUSH1 0x1 PUSH1 0x1 PUSH1 0xA0 SHL SUB DUP7 AND DUP5 MSTORE SWAP1 SWAP2 MSTORE SWAP1 KECCAK256 DUP1 SLOAD PUSH1 0xFF NOT AND PUSH1 0x1 OR SWAP1 SSTORE PUSH3 0x2B1 CALLER SWAP1 JUMP JUMPDEST PUSH1 0x1 PUSH1 0x1 PUSH1 0xA0 SHL SUB AND DUP3 PUSH1 0x1 PUSH1 0x1 PUSH1 0xA0 SHL SUB AND DUP5 PUSH32 0x2F8788117E7EFF1D82E926EC794901D17C78024A50270940304540A733656F0D PUSH1 0x40 MLOAD PUSH1 0x40 MLOAD DUP1 SWAP2 SUB SWAP1 LOG4 POP PUSH1 0x1 PUSH3 0x2FE JUMP JUMPDEST POP PUSH1 0x0 JUMPDEST SWAP3 SWAP2 POP POP JUMP JUMPDEST DUP1 MLOAD PUSH1 0x1 PUSH1 0x1 PUSH1 0xA0 SHL SUB DUP2 AND DUP2 EQ PUSH3 0x31C JUMPI PUSH1 0x0 DUP1 REVERT JUMPDEST SWAP2 SWAP1 POP JUMP JUMPDEST PUSH1 0x0 DUP1 PUSH1 0x0 DUP1 PUSH1 0x0 PUSH1 0xA0 DUP7 DUP9 SUB SLT ISZERO PUSH3 0x33A JUMPI PUSH1 0x0 DUP1 REVERT JUMPDEST PUSH3 0x345 DUP7 PUSH3 0x304 JUMP JUMPDEST SWAP5 POP PUSH3 0x355 PUSH1 0x20 DUP8 ADD PUSH3 0x304 JUMP JUMPDEST SWAP4 POP PUSH3 0x365 PUSH1 0x40 DUP8 ADD PUSH3 0x304 JUMP JUMPDEST PUSH1 0x60 DUP8 ADD MLOAD PUSH1 0x80 SWAP1 SWAP8 ADD MLOAD SWAP6 SWAP9 SWAP5 SWAP8 POP SWAP6 SWAP5 SWAP4 SWAP3 POP POP POP JUMP JUMPDEST PUSH1 0x80 MLOAD PUSH2 0xB5E PUSH3 0x3A1 PUSH1 0x0 CODECOPY PUSH1 0x0 DUP2 DUP2 PUSH2 0x2AC ADD MSTORE PUSH2 0x5AA ADD MSTORE PUSH2 0xB5E PUSH1 0x0 RETURN INVALID PUSH1 0x80 PUSH1 0x40 MSTORE CALLVALUE DUP1 ISZERO PUSH2 0x10 JUMPI PUSH1 0x0 DUP1 REVERT JUMPDEST POP PUSH1 0x4 CALLDATASIZE LT PUSH2 0x121 JUMPI PUSH1 0x0 CALLDATALOAD PUSH1 0xE0 SHR DUP1 PUSH4 0x4C16C991 GT PUSH2 0xAD JUMPI DUP1 PUSH4 0x91D14854 GT PUSH2 0x71 JUMPI DUP1 PUSH4 0x91D14854 EQ PUSH2 0x256 JUMPI DUP1 PUSH4 0xA217FDDF EQ PUSH2 0x269 JUMPI DUP1 PUSH4 0xD30344F1 EQ PUSH2 0x271 JUMPI DUP1 PUSH4 0xD547741F EQ PUSH2 0x294 JUMPI DUP1 PUSH4 0xFC0C546A EQ PUSH2 0x2A7 JUMPI PUSH1 0x0 DUP1 REVERT JUMPDEST DUP1 PUSH4 0x4C16C991 EQ PUSH2 0x212 JUMPI DUP1 PUSH4 0x5457517A EQ PUSH2 0x21B JUMPI DUP1 PUSH4 0x5C975ABB EQ PUSH2 0x22E JUMPI DUP1 PUSH4 0x75B238FC EQ PUSH2 0x239 JUMPI DUP1 PUSH4 0x8456CB59 EQ PUSH2 0x24E JUMPI PUSH1 0x0 DUP1 REVERT JUMPDEST DUP1 PUSH4 0x248A9CA3 GT PUSH2 0xF4 JUMPI DUP1 PUSH4 0x248A9CA3 EQ PUSH2 0x1AC JUMPI DUP1 PUSH4 0x2F2FF15D EQ PUSH2 0x1CF JUMPI DUP1 PUSH4 0x36568ABE EQ PUSH2 0x1E4 JUMPI DUP1 PUSH4 0x398EA794 EQ PUSH2 0x1F7 JUMPI DUP1 PUSH4 0x3F4BA83A EQ PUSH2 0x20A JUMPI PUSH1 0x0 DUP1 REVERT JUMPDEST DUP1 PUSH4 0x1FFC9A7 EQ PUSH2 0x126 JUMPI DUP1 PUSH4 0x451882A EQ PUSH2 0x14E JUMPI DUP1 PUSH4 0x7E2CEA5 EQ PUSH2 0x17C JUMPI DUP1 PUSH4 0xE3D51F5 EQ PUSH2 0x1A3 JUMPI JUMPDEST PUSH1 0x0 DUP1 REVERT JUMPDEST PUSH2 0x139 PUSH2 0x134 CALLDATASIZE PUSH1 0x4 PUSH2 0x9E5 JUMP JUMPDEST PUSH2 0x2E6 JUMP JUMPDEST PUSH1 0x40 MLOAD SWAP1 ISZERO ISZERO DUP2 MSTORE PUSH1 0x20 ADD JUMPDEST PUSH1 0x40 MLOAD DUP1 SWAP2 SUB SWAP1 RETURN JUMPDEST PUSH2 0x16E PUSH2 0x15C CALLDATASIZE PUSH1 0x4 PUSH2 0xA32 JUMP JUMPDEST PUSH1 0x3 PUSH1 0x20 MSTORE PUSH1 0x0 SWAP1 DUP2 MSTORE PUSH1 0x40 SWAP1 KECCAK256 SLOAD DUP2 JUMP JUMPDEST PUSH1 0x40 MLOAD SWAP1 DUP2 MSTORE PUSH1 0x20 ADD PUSH2 0x145 JUMP JUMPDEST PUSH2 0x16E PUSH32 0x68E79A7BF1E0BC45D0A330C573BC367F9CF464FD326078812F301165FBDA4EF1 DUP2 JUMP JUMPDEST PUSH2 0x16E PUSH1 0x4 SLOAD DUP2 JUMP JUMPDEST PUSH2 0x16E PUSH2 0x1BA CALLDATASIZE PUSH1 0x4 PUSH2 0xA4D JUMP JUMPDEST PUSH1 0x0 SWAP1 DUP2 MSTORE PUSH1 0x20 DUP2 SWAP1 MSTORE PUSH1 0x40 SWAP1 KECCAK256 PUSH1 0x1 ADD SLOAD SWAP1 JUMP JUMPDEST PUSH2 0x1E2 PUSH2 0x1DD CALLDATASIZE PUSH1 0x4 PUSH2 0xA66 JUMP JUMPDEST PUSH2 0x31D JUMP JUMPDEST STOP JUMPDEST PUSH2 0x1E2 PUSH2 0x1F2 CALLDATASIZE PUSH1 0x4 PUSH2 0xA66 JUMP JUMPDEST PUSH2 0x348 JUMP JUMPDEST PUSH2 0x1E2 PUSH2 0x205 CALLDATASIZE PUSH1 0x4 PUSH2 0xA92 JUMP JUMPDEST PUSH2 0x380 JUMP JUMPDEST PUSH2 0x1E2 PUSH2 0x653 JUMP JUMPDEST PUSH2 0x16E PUSH1 0x5 SLOAD DUP2 JUMP JUMPDEST PUSH2 0x1E2 PUSH2 0x229 CALLDATASIZE PUSH1 0x4 PUSH2 0xAC5 JUMP JUMPDEST PUSH2 0x676 JUMP JUMPDEST PUSH1 0x1 SLOAD PUSH1 0xFF AND PUSH2 0x139 JUMP JUMPDEST PUSH2 0x16E PUSH1 0x0 DUP1 MLOAD PUSH1 0x20 PUSH2 0xB09 DUP4 CODECOPY DUP2 MLOAD SWAP2 MSTORE DUP2 JUMP JUMPDEST PUSH2 0x1E2 PUSH2 0x75D JUMP JUMPDEST PUSH2 0x139 PUSH2 0x264 CALLDATASIZE PUSH1 0x4 PUSH2 0xA66 JUMP JUMPDEST PUSH2 0x77D JUMP JUMPDEST PUSH2 0x16E PUSH1 0x0 DUP2 JUMP JUMPDEST PUSH2 0x139 PUSH2 0x27F CALLDATASIZE PUSH1 0x4 PUSH2 0xA4D JUMP JUMPDEST PUSH1 0x2 PUSH1 0x20 MSTORE PUSH1 0x0 SWAP1 DUP2 MSTORE PUSH1 0x40 SWAP1 KECCAK256 SLOAD PUSH1 0xFF AND DUP2 JUMP JUMPDEST PUSH2 0x1E2 PUSH2 0x2A2 CALLDATASIZE PUSH1 0x4 PUSH2 0xA66 JUMP JUMPDEST PUSH2 0x7A6 JUMP JUMPDEST PUSH2 0x2CE PUSH32 0x0 DUP2 JUMP JUMPDEST PUSH1 0x40 MLOAD PUSH1 0x1 PUSH1 0x1 PUSH1 0xA0 SHL SUB SWAP1 SWAP2 AND DUP2 MSTORE PUSH1 0x20 ADD PUSH2 0x145 JUMP JUMPDEST PUSH1 0x0 PUSH1 0x1 PUSH1 0x1 PUSH1 0xE0 SHL SUB NOT DUP3 AND PUSH4 0x7965DB0B PUSH1 0xE0 SHL EQ DUP1 PUSH2 0x317 JUMPI POP PUSH4 0x1FFC9A7 PUSH1 0xE0 SHL PUSH1 0x1 PUSH1 0x1 PUSH1 0xE0 SHL SUB NOT DUP4 AND EQ JUMPDEST SWAP3 SWAP2 POP POP JUMP JUMPDEST PUSH1 0x0 DUP3 DUP2 MSTORE PUSH1 0x20 DUP2 SWAP1 MSTORE PUSH1 0x40 SWAP1 KECCAK256 PUSH1 0x1 ADD SLOAD PUSH2 0x338 DUP2 PUSH2 0x7CB JUMP JUMPDEST PUSH2 0x342 DUP4 DUP4 PUSH2 0x7D5 JUMP JUMPDEST POP POP POP POP JUMP JUMPDEST PUSH1 0x1 PUSH1 0x1 PUSH1 0xA0 SHL SUB DUP2 AND CALLER EQ PUSH2 0x371 JUMPI PUSH1 0x40 MLOAD PUSH4 0x334BD919 PUSH1 0xE1 SHL DUP2 MSTORE PUSH1 0x4 ADD PUSH1 0x40 MLOAD DUP1 SWAP2 SUB SWAP1 REVERT JUMPDEST PUSH2 0x37B DUP3 DUP3 PUSH2 0x867 JUMP JUMPDEST POP POP POP JUMP JUMPDEST PUSH32 0x68E79A7BF1E0BC45D0A330C573BC367F9CF464FD326078812F301165FBDA4EF1 PUSH2 0x3AA DUP2 PUSH2 0x7CB JUMP JUMPDEST PUSH2 0x3B2 PUSH2 0x8D2 JUMP JUMPDEST PUSH1 0x1 PUSH1 0x1 PUSH1 0xA0 SHL SUB DUP5 AND PUSH2 0x404 JUMPI PUSH1 0x40 MLOAD PUSH3 0x461BCD PUSH1 0xE5 SHL DUP2 MSTORE PUSH1 0x20 PUSH1 0x4 DUP3 ADD MSTORE PUSH1 0x14 PUSH1 0x24 DUP3 ADD MSTORE PUSH20 0x75736572206973207A65726F2061646472657373 PUSH1 0x60 SHL PUSH1 0x44 DUP3 ADD MSTORE PUSH1 0x64 ADD JUMPDEST PUSH1 0x40 MLOAD DUP1 SWAP2 SUB SWAP1 REVERT JUMPDEST PUSH1 0x0 DUP4 GT PUSH2 0x445 JUMPI PUSH1 0x40 MLOAD PUSH3 0x461BCD PUSH1 0xE5 SHL DUP2 MSTORE PUSH1 0x20 PUSH1 0x4 DUP3 ADD MSTORE PUSH1 0xE PUSH1 0x24 DUP3 ADD MSTORE PUSH14 0x616D6F756E74206973207A65726F PUSH1 0x90 SHL PUSH1 0x44 DUP3 ADD MSTORE PUSH1 0x64 ADD PUSH2 0x3FB JUMP JUMPDEST PUSH1 0x0 DUP3 DUP2 MSTORE PUSH1 0x2 PUSH1 0x20 MSTORE PUSH1 0x40 SWAP1 KECCAK256 SLOAD PUSH1 0xFF AND ISZERO PUSH2 0x49D JUMPI PUSH1 0x40 MLOAD PUSH3 0x461BCD PUSH1 0xE5 SHL DUP2 MSTORE PUSH1 0x20 PUSH1 0x4 DUP3 ADD MSTORE PUSH1 0x16 PUSH1 0x24 DUP3 ADD MSTORE PUSH22 0x195D995B9D08185B1C9958591E481C995DD85C991959 PUSH1 0x52 SHL PUSH1 0x44 DUP3 ADD MSTORE PUSH1 0x64 ADD PUSH2 0x3FB JUMP JUMPDEST PUSH1 0x4 SLOAD DUP4 GT ISZERO PUSH2 0x4E8 JUMPI PUSH1 0x40 MLOAD PUSH3 0x461BCD PUSH1 0xE5 SHL DUP2 MSTORE PUSH1 0x20 PUSH1 0x4 DUP3 ADD MSTORE PUSH1 0x16 PUSH1 0x24 DUP3 ADD MSTORE PUSH22 0x616D6F756E742061626F7665206576656E742063617 PUSH1 0x54 SHL PUSH1 0x44 DUP3 ADD MSTORE PUSH1 0x64 ADD PUSH2 0x3FB JUMP JUMPDEST PUSH1 0x1 PUSH1 0x1 PUSH1 0xA0 SHL SUB DUP5 AND PUSH1 0x0 SWAP1 DUP2 MSTORE PUSH1 0x3 PUSH1 0x20 MSTORE PUSH1 0x40 DUP2 KECCAK256 SLOAD PUSH2 0x50C SWAP1 DUP6 SWAP1 PUSH2 0xAE7 JUMP JUMPDEST SWAP1 POP PUSH1 0x5 SLOAD DUP2 GT ISZERO PUSH2 0x558 JUMPI PUSH1 0x40 MLOAD PUSH3 0x461BCD PUSH1 0xE5 SHL DUP2 MSTORE PUSH1 0x20 PUSH1 0x4 DUP3 ADD MSTORE PUSH1 0x15 PUSH1 0x24 DUP3 ADD MSTORE PUSH21 0x616D6F756E742061626F766520757365722063617 PUSH1 0x5C SHL PUSH1 0x44 DUP3 ADD MSTORE PUSH1 0x64 ADD PUSH2 0x3FB JUMP JUMPDEST PUSH1 0x0 DUP4 DUP2 MSTORE PUSH1 0x2 PUSH1 0x20 SWAP1 DUP2 MSTORE PUSH1 0x40 DUP1 DUP4 KECCAK256 DUP1 SLOAD PUSH1 0xFF NOT AND PUSH1 0x1 OR SWAP1 SSTORE PUSH1 0x1 PUSH1 0x1 PUSH1 0xA0 SHL SUB DUP9 DUP2 AND DUP1 DUP6 MSTORE PUSH1 0x3 SWAP1 SWAP4 MSTORE SWAP3 DUP2 SWAP1 KECCAK256 DUP5 SWAP1 SSTORE MLOAD PUSH4 0x4D248487 PUSH1 0xE1 SHL DUP2 MSTORE PUSH1 0x4 DUP2 ADD SWAP2 SWAP1 SWAP2 MSTORE PUSH1 0x24 DUP2 ADD DUP7 SWAP1 MSTORE PUSH32 0x0 SWAP1 SWAP2 AND SWAP1 PUSH4 0x9A49090E SWAP1 PUSH1 0x44 ADD PUSH1 0x0 PUSH1 0x40 MLOAD DUP1 DUP4 SUB DUP2 PUSH1 0x0 DUP8 DUP1 EXTCODESIZE ISZERO DUP1 ISZERO PUSH2 0x5F0 JUMPI PUSH1 0x0 DUP1 REVERT JUMPDEST POP GAS CALL ISZERO DUP1 ISZERO PUSH2 0x604 JUMPI RETURNDATASIZE PUSH1 0x0 DUP1 RETURNDATACOPY RETURNDATASIZE PUSH1 0x0 REVERT JUMPDEST POP POP POP POP DUP3 DUP6 PUSH1 0x1 PUSH1 0x1 PUSH1 0xA0 SHL SUB AND PUSH32 0x8C0BA91ED9E44C0A68B6055E2CC192CB295B9B4614ADF8F34D1663077A9CD8E3 DUP7 PUSH1 0x40 MLOAD PUSH2 0x644 SWAP2 DUP2 MSTORE PUSH1 0x20 ADD SWAP1 JUMP JUMPDEST PUSH1 0x40 MLOAD DUP1 SWAP2 SUB SWAP1 LOG3 POP POP POP POP POP JUMP JUMPDEST PUSH1 0x0 DUP1 MLOAD PUSH1 0x20 PUSH2 0xB09 DUP4 CODECOPY DUP2 MLOAD SWAP2 MSTORE PUSH2 0x66B DUP2 PUSH2 0x7CB JUMP JUMPDEST PUSH2 0x673 PUSH2 0x8F8 JUMP JUMPDEST POP JUMP JUMPDEST PUSH1 0x0 DUP1 MLOAD PUSH1 0x20 PUSH2 0xB09 DUP4 CODECOPY DUP2 MLOAD SWAP2 MSTORE PUSH2 0x68E DUP2 PUSH2 0x7CB JUMP JUMPDEST PUSH1 0x0 DUP4 GT PUSH2 0x6D2 JUMPI PUSH1 0x40 MLOAD PUSH3 0x461BCD PUSH1 0xE5 SHL DUP2 MSTORE PUSH1 0x20 PUSH1 0x4 DUP3 ADD MSTORE PUSH1 0x11 PUSH1 0x24 DUP3 ADD MSTORE PUSH17 0x696E76616C6964206576656E742063617 PUSH1 0x7C SHL PUSH1 0x44 DUP3 ADD MSTORE PUSH1 0x64 ADD PUSH2 0x3FB JUMP JUMPDEST PUSH1 0x0 DUP3 GT PUSH2 0x715 JUMPI PUSH1 0x40 MLOAD PUSH3 0x461BCD PUSH1 0xE5 SHL DUP2 MSTORE PUSH1 0x20 PUSH1 0x4 DUP3 ADD MSTORE PUSH1 0x10 PUSH1 0x24 DUP3 ADD MSTORE PUSH16 0x696E76616C696420757365722063617 PUSH1 0x84 SHL PUSH1 0x44 DUP3 ADD MSTORE PUSH1 0x64 ADD PUSH2 0x3FB JUMP JUMPDEST PUSH1 0x4 DUP4 SWAP1 SSTORE PUSH1 0x5 DUP3 SWAP1 SSTORE PUSH1 0x40 DUP1 MLOAD DUP5 DUP2 MSTORE PUSH1 0x20 DUP2 ADD DUP5 SWAP1 MSTORE PUSH32 0xC48169F9DDC0F6BD9C4E89FB3EF3B70AE73DCBFC8D9CF4EA1B8B58481A90FA2F SWAP2 ADD PUSH1 0x40 MLOAD DUP1 SWAP2 SUB SWAP1 LOG1 POP POP POP JUMP JUMPDEST PUSH1 0x0 DUP1 MLOAD PUSH1 0x20 PUSH2 0xB09 DUP4 CODECOPY DUP2 MLOAD SWAP2 MSTORE PUSH2 0x775 DUP2 PUSH2 0x7CB JUMP JUMPDEST PUSH2 0x673 PUSH2 0x94A JUMP JUMPDEST PUSH1 0x0 SWAP2 DUP3 MSTORE PUSH1 0x20 DUP3 DUP2 MSTORE PUSH1 0x40 DUP1 DUP5 KECCAK256 PUSH1 0x1 PUSH1 0x1 PUSH1 0xA0 SHL SUB SWAP4 SWAP1 SWAP4 AND DUP5 MSTORE SWAP2 SWAP1 MSTORE SWAP1 KECCAK256 SLOAD PUSH1 0xFF AND SWAP1 JUMP JUMPDEST PUSH1 0x0 DUP3 DUP2 MSTORE PUSH1 0x20 DUP2 SWAP1 MSTORE PUSH1 0x40 SWAP1 KECCAK256 PUSH1 0x1 ADD SLOAD PUSH2 0x7C1 DUP2 PUSH2 0x7CB JUMP JUMPDEST PUSH2 0x342 DUP4 DUP4 PUSH2 0x867 JUMP JUMPDEST PUSH2 0x673 DUP2 CALLER PUSH2 0x985 JUMP JUMPDEST PUSH1 0x0 PUSH2 0x7E1 DUP4 DUP4 PUSH2 0x77D JUMP JUMPDEST PUSH2 0x85F JUMPI PUSH1 0x0 DUP4 DUP2 MSTORE PUSH1 0x20 DUP2 DUP2 MSTORE PUSH1 0x40 DUP1 DUP4 KECCAK256 PUSH1 0x1 PUSH1 0x1 PUSH1 0xA0 SHL SUB DUP7 AND DUP5 MSTORE SWAP1 SWAP2 MSTORE SWAP1 KECCAK256 DUP1 SLOAD PUSH1 0xFF NOT AND PUSH1 0x1 OR SWAP1 SSTORE PUSH2 0x817 CALLER SWAP1 JUMP JUMPDEST PUSH1 0x1 PUSH1 0x1 PUSH1 0xA0 SHL SUB AND DUP3 PUSH1 0x1 PUSH1 0x1 PUSH1 0xA0 SHL SUB AND DUP5 PUSH32 0x2F8788117E7EFF1D82E926EC794901D17C78024A50270940304540A733656F0D PUSH1 0x40 MLOAD PUSH1 0x40 MLOAD DUP1 SWAP2 SUB SWAP1 LOG4 POP PUSH1 0x1 PUSH2 0x317 JUMP JUMPDEST POP PUSH1 0x0 PUSH2 0x317 JUMP JUMPDEST PUSH1 0x0 PUSH2 0x873 DUP4 DUP4 PUSH2 0x77D JUMP JUMPDEST ISZERO PUSH2 0x85F JUMPI PUSH1 0x0 DUP4 DUP2 MSTORE PUSH1 0x20 DUP2 DUP2 MSTORE PUSH1 0x40 DUP1 DUP4 KECCAK256 PUSH1 0x1 PUSH1 0x1 PUSH1 0xA0 SHL SUB DUP7 AND DUP1 DUP6 MSTORE SWAP3 MSTORE DUP1 DUP4 KECCAK256 DUP1 SLOAD PUSH1 0xFF NOT AND SWAP1 SSTORE MLOAD CALLER SWAP3 DUP7 SWAP2 PUSH32 0xF6391F5C32D9C69D2A47EA670B442974B53935D1EDC7FD64EB21E047A839171B SWAP2 SWAP1 LOG4 POP PUSH1 0x1 PUSH2 0x317 JUMP JUMPDEST PUSH1 0x1 SLOAD PUSH1 0xFF AND ISZERO PUSH2 0x8F6 JUMPI PUSH1 0x40 MLOAD PUSH4 0xD93C0665 PUSH1 0xE0 SHL DUP2 MSTORE PUSH1 0x4 ADD PUSH1 0x40 MLOAD DUP1 SWAP2 SUB SWAP1 REVERT JUMPDEST JUMP JUMPDEST PUSH2 0x900 PUSH2 0x9C2 JUMP JUMPDEST PUSH1 0x1 DUP1 SLOAD PUSH1 0xFF NOT AND SWAP1 SSTORE PUSH32 0x5DB9EE0A495BF2E6FF9C91A7834C1BA4FDD244A5E8AA4E537BD38AEAE4B073AA CALLER JUMPDEST PUSH1 0x40 MLOAD PUSH1 0x1 PUSH1 0x1 PUSH1 0xA0 SHL SUB SWAP1 SWAP2 AND DUP2 MSTORE PUSH1 0x20 ADD PUSH1 0x40 MLOAD DUP1 SWAP2 SUB SWAP1 LOG1 JUMP JUMPDEST PUSH2 0x952 PUSH2 0x8D2 JUMP JUMPDEST PUSH1 0x1 DUP1 SLOAD PUSH1 0xFF NOT AND DUP2 OR SWAP1 SSTORE PUSH32 0x62E78CEA01BEE320CD4E420270B5EA74000D11B0C9F74754EBDBFC544B05A258 CALLER PUSH2 0x92D JUMP JUMPDEST PUSH2 0x98F DUP3 DUP3 PUSH2 0x77D JUMP JUMPDEST PUSH2 0x9BE JUMPI PUSH1 0x40 MLOAD PUSH4 0xE2517D3F PUSH1 0xE0 SHL DUP2 MSTORE PUSH1 0x1 PUSH1 0x1 PUSH1 0xA0 SHL SUB DUP3 AND PUSH1 0x4 DUP3 ADD MSTORE PUSH1 0x24 DUP2 ADD DUP4 SWAP1 MSTORE PUSH1 0x44 ADD PUSH2 0x3FB JUMP JUMPDEST POP POP JUMP JUMPDEST PUSH1 0x1 SLOAD PUSH1 0xFF AND PUSH2 0x8F6 JUMPI PUSH1 0x40 MLOAD PUSH4 0x8DFC202B PUSH1 0xE0 SHL DUP2 MSTORE PUSH1 0x4 ADD PUSH1 0x40 MLOAD DUP1 SWAP2 SUB SWAP1 REVERT JUMPDEST PUSH1 0x0 PUSH1 0x20 DUP3 DUP5 SUB SLT ISZERO PUSH2 0x9F7 JUMPI PUSH1 0x0 DUP1 REVERT JUMPDEST DUP2 CALLDATALOAD PUSH1 0x1 PUSH1 0x1 PUSH1 0xE0 SHL SUB NOT DUP2 AND DUP2 EQ PUSH2 0xA0F JUMPI PUSH1 0x0 DUP1 REVERT JUMPDEST SWAP4 SWAP3 POP POP POP JUMP JUMPDEST DUP1 CALLDATALOAD PUSH1 0x1 PUSH1 0x1 PUSH1 0xA0 SHL SUB DUP2 AND DUP2 EQ PUSH2 0xA2D JUMPI PUSH1 0x0 DUP1 REVERT JUMPDEST SWAP2 SWAP1 POP JUMP JUMPDEST PUSH1 0x0 PUSH1 0x20 DUP3 DUP5 SUB SLT ISZERO PUSH2 0xA44 JUMPI PUSH1 0x0 DUP1 REVERT JUMPDEST PUSH2 0xA0F DUP3 PUSH2 0xA16 JUMP JUMPDEST PUSH1 0x0 PUSH1 0x20 DUP3 DUP5 SUB SLT ISZERO PUSH2 0xA5F JUMPI PUSH1 0x0 DUP1 REVERT JUMPDEST POP CALLDATALOAD SWAP2 SWAP1 POP JUMP JUMPDEST PUSH1 0x0 DUP1 PUSH1 0x40 DUP4 DUP6 SUB SLT ISZERO PUSH2 0xA79 JUMPI PUSH1 0x0 DUP1 REVERT JUMPDEST DUP3 CALLDATALOAD SWAP2 POP PUSH2 0xA89 PUSH1 0x20 DUP5 ADD PUSH2 0xA16 JUMP JUMPDEST SWAP1 POP SWAP3 POP SWAP3 SWAP1 POP JUMP JUMPDEST PUSH1 0x0 DUP1 PUSH1 0x0 PUSH1 0x60 DUP5 DUP7 SUB SLT ISZERO PUSH2 0xAA7 JUMPI PUSH1 0x0 DUP1 REVERT JUMPDEST PUSH2 0xAB0 DUP5 PUSH2 0xA16 JUMP JUMPDEST SWAP6 PUSH1 0x20 DUP6 ADD CALLDATALOAD SWAP6 POP PUSH1 0x40 SWAP1 SWAP5 ADD CALLDATALOAD SWAP4 SWAP3 POP POP POP JUMP JUMPDEST PUSH1 0x0 DUP1 PUSH1 0x40 DUP4 DUP6 SUB SLT ISZERO PUSH2 0xAD8 JUMPI PUSH1 0x0 DUP1 REVERT JUMPDEST POP POP DUP1 CALLDATALOAD SWAP3 PUSH1 0x20 SWAP1 SWAP2 ADD CALLDATALOAD SWAP2 POP JUMP JUMPDEST DUP1 DUP3 ADD DUP1 DUP3 GT ISZERO PUSH2 0x317 JUMPI PUSH4 0x4E487B71 PUSH1 0xE0 SHL PUSH1 0x0 MSTORE PUSH1 0x11 PUSH1 0x4 MSTORE PUSH1 0x24 PUSH1 0x0 REVERT INVALID LOG4 SWAP9 SMOD KECCAK256 0x5C 0xE4 0xD3 SSTORE MULMOD 0x2E CREATE2 0xA8 LOG1 DUP16 JUMP 0xE8 SWAP2 EXTCODECOPY DELEGATECALL LOG2 ADD 0xFB 0xE2 DUP8 DUP3 JUMPDEST MULMOD JUMP SWAP4 0xC2 OR PUSH22 0xA26469706673582212203AA35B6A30DC45C20BEB5C0F 0xFC PUSH23 0x7EF0658BA90A086A87F1968CBC2CDD18CBB664736F6C63 NUMBER STOP ADDMOD EQ STOP CALLER "},"methodIdentifiers":{"ADMIN_ROLE()":"75b238fc","DEFAULT_ADMIN_ROLE()":"a217fddf","ORACLE_ROLE()":"07e2cea5","eventIdUsed(bytes32)":"d30344f1","getRoleAdmin(bytes32)":"248a9ca3","grantRole(bytes32,address)":"2f2ff15d","hasRole(bytes32,address)":"91d14854","issueReward(address,uint256,bytes32)":"398ea794","maxRewardPerEvent()":"0e3d51f5","maxRewardsPerUser()":"4c16c991","pause()":"8456cb59","paused()":"5c975abb","renounceRole(bytes32,address)":"36568abe","revokeRole(bytes32,address)":"d547741f","setRewardCaps(uint256,uint256)":"5457517a","supportsInterface(bytes4)":"01ffc9a7","token()":"fc0c546a","totalRewardsByUser(address)":"0451882a","unpause()":"3f4ba83a"}}}}}